S01D00004D7573636C6553656E736F7253657269616C436F6D2E73726563A5
S11300000C9434000C943E000C943E000C943E007E
S11300100C943E000C943E000C943E000C943E0064
S11300200C943E000C943E000C943E000C943E0054
S11300300C943E000C943E000C943E000C943E0044
S11300400C943E000C943E000C943E000C943E0034
S11300500C943E000C943E000C943E000C943E0024
S11300600C943E000C943E0011241FBECFEFD8E048
S1130070DEBFCDBF0E94A1000C94B8000C94000018
S11300801092C50087E68093C400E0ECF0E0808124
S11300908D7F808388E18093C10086E08093C200D5
S11300A00895E0ECF0E0908195FFFDCF8093C600C9
S11300B00895ACE7B0E08C9180648C93EAE7F0E0BB
S11300C08081866080838C9185608C938081806838
S11300D0808308950F931F93CF93DF93CDB7DEB73B
S11300E02C970FB6F894DEBF0FBECDBFCE0101969C
S11300F060E00CE710E0EAE7F0E048E750E0D80100
S11301002C91207F262B2C93208120642083208116
S113011026FDFDCFDA012D913C91DC012D933D9319
S1130120CD016F5F663059F7CE0101962C960FB65C
S1130130F894DEBF0FBECDBFDF91CF911F910F9119
S113014008950E9440000E9459000E946A0080E0C5
S113015090E0FC01118210820E945100FFEF24E321
S11301608CE0F15020408040E1F700C00000EDCF6A
S1070170F894FFCF2D
S9030000FC
